:060000000A128A110E280D
:10000800FE00030E83120313C3000A08C4000A1279
:100018008A11BD290A128A11112883133430FD0070
:100028000230FE00EB30FF00203084000A128A11F3
:1000380003230A128A11B401B501B601B701B80148
:10004800B901BA01BB01BC01BD01BE01BF01C001BC
:1000580083010A128A1130280A128A11D4220A123C
:100068008A110A128A1112230A128A110A128A1193
:10007800B5220A128A1102300A128A1194220A122F
:100088008A1102300A128A1194220A128A118312E2
:100098000313C001C00A00298C1E53285428622863
:1000A8001A08BF008C121A3083120313C800F730E5
:1000B800C700C70B5D28C80B5D2862283130831242
:1000C80003133F06031D69286A28C228AC300A12A8
:1000D8008A1194220A128A113E300A128A11942235
:1000E8000A128A11831203139F140D30831203130B
:1000F800C800FB30C700C70B7F28C80B7F288312B6
:1001080003133A08C7004707203E840083130008FA
:10011800303E99000D3083120313C800FB30C7002E
:10012800C70B9428C80B9428831203133808C700F8
:100138004707203E840083130008303E99000D30A5
:1001480083120313C800FB30C700C70BA928C80BCC
:10015800A928831203133608C7004707203E8400E6
:1001680083130008303E9900AA300A128A1194229B
:100178000A128A1183120313C001BF0132303F06ED
:10018800031DC728C8280029AC300A128A119422F6
:100198000A128A118D300A128A1194220A128A11BF
:1001A800AC300A128A1194220A128A1167300A1294
:1001B8008A1194220A128A11AC300A128A119422E6
:1001C8000A128A1183120313BE01BE0A8C12FB287D
:1001D8008C1EEF28F028FB281A080319F428F528A4
:1001E800FB281A0886008C12BE01C001BF013E031D
:1001F8000319FF280029EC284003031904290529BD
:10020800502845280A128A110E2801308A0004084D
:10021800840A8207003441344D3465346E347534B1
:1002280020346434653420346F3470346334693472
:100238006F346E34653473343A340A340D343134DF
:10024800293420344C3465346534723420345034C5
:100258006F34743465346E34633469346F346D3498
:100268006534743472346F340A340D3432342934BA
:10027800203445346E347634693461347234203431
:10028800413453344334493449340A340D34003446
:10029800533465346C3465346334633469346F348F
:1002A8006E3461346434613420346C3465346334BE
:1002B80074347534723461342034643465342034D1
:1002C80070346F34743465346E34633469346F3425
:1002D8006D346534743472346F343A340A340D34FE
:1002E800003449346E346734723465347334653499
:1002F8002034633461347234613463347434653463
:1003080072342034283473346F346C346F342034AE
:1003180075346E3420346334613472346134633438
:1003280074346534723429340A340D340034533447
:1003380065346C3465346334633469346F346E34D3
:10034800613464346F34203465346E3476346934FF
:100358006134723420344134533443344934493499
:100368003A340A340D3400340A340D340A340D3466
:1003780000340C1FC029C1290F2A1E08C100C20160
:100388004108B4004208B5006430F0000030F100C4
:100398003508F3003408F2000A128A1116220A12EC
:1003A8008A11710883120313BB007008BA000A305F
:1003B800F8000030F9000A30F0000030F10035088C
:1003C800F3003408F2000A128A1116220A128A115E
:1003D8007108FB007008FA000A128A115A220A12E0
:1003E8008A11790883120313B9007808B8000A3013
:1003F800F8000030F9003508FB003408FA000A124A
:100408008A115A220A128A11790883120313B70033
:100418007808B6000C1344088A00430E8300FE0EC9
:100428007E0E0900F501F6017008710403191D2AF2
:100438001E2A552AF701F70A2C2A01300310F00D5D
:10044800F10DFF3E031D222A0130F4007408F7075E
:10045800F11F2F2A302A212A01300310F50DF60D3D
:10046800FF3E031D312A71087302031D3D2A7008DF
:100478007202031C402A412A482A7008F2027108B5
:10048800031CF303F302751401300310F10CF00C94
:10049800FF3E031D492A0130F702031D542A552A3D
:1004A800302A7608F1007508F00008007808790409
:1004B80003195F2A602A8F2AFD01FD0A6E2A01307E
:1004C8000310F80DF90DFF3E031D642A0130FC00EE
:1004D8007C08FD07F91F712A722A632A79087B02B2
:1004E800031D782A78087A02031C7B2A7C2A822A30
:1004F8007808FA027908031CFB03FB020130031099
:10050800F90CF80CFF3E031D832A0130FD02031D80
:100518008E2A8F2A722A7B08F9007A08F8000800C8
:1005280083120313C600A82A0C1E9B2A9C2A982A09
:10053800460884000A128A1109210A128A119900B0
:100548000130C5004508C607460884000A128A110A
:1005580009210A128A11003A031DB32AB42A982ADB
:100568000800C330831203139F05831603139F12D9
:100578001F12831203131F083F3980389F00831608
:1005880003139F13831203131F14033083120313DF
:10059800C6009730C500C50BCF2AC60BCF2A080066
:1005A8000130831603178800890183160313860117
:1005B8008312031386017030831603138F040F14FC
:1005C8000C17831203130C130B178B170800003436
:1005D8000034013400340234003403340034043469
:1005E8000034053400340734003408340034093446
:1005F8000034003400347E088A007F0882000A1222
:100608008A11FF220A128A118000840A04087D06D2
:1006180003190034FF0A0319FE0A032B0C30831652
:1006280003139900181283120313981783160313E0
:0C0638009816831203130C121816080009
:08400000FF3FFF3FFF3FFF3FC0
:04400E00D420FF3F7C
:00000001FF
