:060000000A128A110E280D
:10000800FE00030E83120313C3000A08C4000A1279
:100018008A11B7290A128A11112883133430FD0076
:100028000230FE00E530FF00203084000A128A11F9
:10003800FD220A128A11B401B501B601B701B8014F
:10004800B901BA01BB01BC01BD01BE01BF01C001BC
:1000580083010A128A1130280A128A11CE220A1242
:100068008A110A128A110C230A128A110A128A1199
:10007800AF220A128A1102300A128A118E220A123B
:100088008A1183120313C001C00AFA288C1E4D2856
:100098004E285C281A08BF008C121A3083120313EA
:1000A800C800F730C700C70B5728C80B57285C286B
:1000B8003130831203133F06031D63286428BC28CC
:1000C800AC300A128A118E220A128A113E300A12A4
:1000D8008A118E220A128A11831203139F140D307B
:1000E80083120313C800FB30C700C70B7928C80B5D
:1000F8007928831203133A08C7004707203E840073
:1001080083130008303E99000D3083120313C80092
:10011800FB30C700C70B8E28C80B8E288312031329
:100128003808C7004707203E840083130008303E84
:1001380099000D3083120313C800FB30C700C70BAA
:10014800A328C80BA328831203133608C700470740
:10015800203E840083130008303E9900AA300A121A
:100168008A118E220A128A1183120313C001BF0159
:1001780032303F06031DC128C228FA28AC300A12C3
:100188008A118E220A128A118D300A128A118E2241
:100198000A128A11AC300A128A118E220A128A11A6
:1001A80067300A128A118E220A128A11AC300A129A
:1001B8008A118E220A128A1183120313BE01BE0A03
:1001C8008C12F5288C1EE928EA28F5281A08031944
:1001D800EE28EF28F5281A0886008C12BE01C00107
:1001E800BF013E030319F928FA28E628400303193A
:1001F800FE28FF284A283F280A128A110E280130B3
:100208008A000408840A8207003441344D34653476
:100218006E34753420346434653420346F3470346B
:10022800633469346F346E34653473343A340A3461
:100238000D343134293420344C3465346534723407
:10024800203450346F34743465346E346334693414
:100258006F346D346534743472346F340A340D3449
:1002680032342934203445346E3476346934613478
:1002780072342034413453344334493449340A34D1
:100288000D340034533465346C346534633463346A
:1002980069346F346E3461346434613420346C34BE
:1002A800653463347434753472346134203464349E
:1002B8006534203470346F34743465346E34633488
:1002C80069346F346D346534743472346F343A344D
:1002D8000A340D34003449346E346734723465346A
:1002E8007334653420346334613472346134633474
:1002F8007434653472342034283473346F346C3475
:100308006F34203475346E3420346334613472347D
:100318006134633474346534723429340A340D34E6
:100328000034533465346C3465346334633469346D
:100338006F346E34613464346F34203465346E3411
:10034800763469346134723420344134533443345C
:10035800493449343A340A340D3400340A340D34FB
:100368000A340D3400340C1FBA29BB29092A1E0887
:10037800C100C2014108B4004208B5006430F00071
:100388000030F1003508F3003408F2000A128A112F
:1003980010220A128A11710883120313BB00700815
:1003A800BA000A30F8000030F9000A30F0000030D6
:1003B800F1003508F3003408F2000A128A111022FD
:1003C8000A128A117108FB007008FA000A128A11D1
:1003D80054220A128A11790883120313B900780883
:1003E800B8000A30F8000030F9003508FB0034087E
:1003F800FA000A128A1154220A128A117908831201
:100408000313B7007808B6000C1344088A00430E9B
:100418008300FE0E7E0E0900F501F60170087104D6
:100428000319172A182A4F2AF701F70A262A013032
:100438000310F00DF10DFF3E031D1C2A0130F400DE
:100448007408F707F11F292A2A2A1B2A01300310EA
:10045800F50DF60DFF3E031D2B2A71087302031DCF
:10046800372A70087202031C3A2A3B2A422A70086B
:10047800F2027108031CF303F30275140130031030
:10048800F10CF00CFF3E031D432A0130F702031D57
:100498004E2A4F2A2A2A7608F1007508F00008002B
:1004A800780879040319592A5A2A892AFD01FD0A6C
:1004B800682A01300310F80DF90DFF3E031D5E2A6E
:1004C8000130FC007C08FD07F91F6B2A6C2A5D2AA5
:1004D80079087B02031D722A78087A02031C752AA0
:1004E800762A7C2A7808FA027908031CFB03FB02A7
:1004F80001300310F90CF80CFF3E031D7D2A013072
:10050800FD02031D882A892A6C2A7B08F9007A08CB
:10051800F800080083120313C600A22A0C1E952AAD
:10052800962A922A460884000A128A1103210A127E
:100538008A1199000130C5004508C607460884009D
:100548000A128A1103210A128A11003A031DAD2AE0
:10055800AE2A922A0800C330831203139F0583161C
:1005680003139F121F12831203131F083F39803889
:100578009F00831603139F13831203131F14033062
:1005880083120313C6009730C500C50BC92AC60BD2
:10059800C92A0800013083160317880089018316C9
:1005A8000313860183120313860170308316031325
:1005B8008F040F140C17831203130C130B178B17CC
:1005C80008000034003401340034023400340334A9
:1005D800003404340034053400340734003408345B
:1005E800003409340034003400347E088A007F085F
:1005F80082000A128A11F9220A128A118000840ADA
:1006080004087D0603190034FF0A0319FE0AFD2AAF
:100618000C308316031399001812831203139817CA
:10062800831603139816831203130C121816080066
:08400000FF3FFF3FFF3FFF3FC0
:04400E00D420FF3F7C
:00000001FF
