:060000000A128A110C280F
:10000800FE00030EF0000A08F1000A128A11A42863
:100018000A128A110F2883010A128A1113280A1258
:100028008A117C200A128A110A128A1194200A1253
:100038008A11831203130C1E222823282928023030
:100048000A128A115B200A128A110630F600133050
:10005800F500AD30F400F40B2F28F50B2F28F60B24
:100068002F28362829280A128A110C2800308A00DD
:100078000408840A8207003441345A3445344C3425
:1000880044344134203445345334203445344C34DA
:1000980020344D3445344A344F34523420344A34B1
:1000A8005534453447344F340A340D340034F300A2
:1000B8006F28831203130C1E622863285D287308B7
:1000C80084000A128A113A200A128A119900013012
:1000D800F2007208F307730884000A128A113A20A2
:1000E8000A128A11003A031D7A287B285D28080025
:1000F8008316031788018901831603138601831267
:10010800031386017030831603138F040F148312B0
:1001180003138C12831603138C160B178B17080006
:100128000C308316031399001812831203139817BF
:10013800831603139816831203130C12181608005B
:10014800831203138C1EA928AA28AC281A08860033
:0E01580071088A00700E8300FE0E7E0E0900F4
:08400000FF3FFF3FFF3FFF3FC0
:04400E00D420FF3F7C
:00000001FF
