:060000000A128A110C280F
:10000800FE00030EF0000A08F1000A128A115E28A9
:100018000A128A110F2883010A128A1113280A1258
:100028008A1136200A128A110A128A114E200A12DF
:100038008A110630F4001330F300AD30F200F20BF1
:100048002328F30B2328F40B23282A2883120313CD
:100058000C1E2F2830281D28413099001D280A120F
:100068008A110C2883160317880189018316031344
:1000780086018312031386017030831603138F04DD
:100088000F14831203138C12831603138C160B1789
:100098008B1708000C30831603139900181283126B
:1000A80003139817831603139816831203130C125D
:1000B80018160800831203138C1E63286428662808
:1000C8001A08860071088A00700E8300FE0E7E0EE4
:1000D800090000308A000408840A82070034413489
:08400000FF3FFF3FFF3FFF3FC0
:04400E00D420FF3F7C
:00000001FF
